:020000040800F2
:1000000000C0002099D101085DCF01085FCF010831
:1000100061CF010863CF010865CF0108000000002F
:1000200000000000000000000000000041F701088F
:1000300067CF010800000000E1F7010825F801087A
:10004000E1D10108E1D10108E1D10108E1D10108C4
:10005000E1D10108E1D10108E1D10108E1D10108B4
:10006000E1D10108E1D10108E1D10108E1D10108A4
:10007000E1D10108E1D10108E1D1010869CF01080E
:1000800079CF010889CF0108E1D10108E1D1010848
:10009000E1D10108E1D10108E1D10108E1D1010874
:1000A000E1D10108E1D10108E1D10108E1D1010864
:1000B000E1D10108E1D10108E1D10108E1D1010854
:1000C000E1D10108E1D10108E1D10108E1D1010844
:1000D000E1D10108E1D1010899CF0108E1D101087E
:1000E000E1D10108E1D10108E1D10108E1D1010824
:1000F000E1D10108E1D10108E1D10108E1D1010814
:10010000E1D10108E1D10108E1D10108E1D1010803
:10011000E1D10108E1D10108E1D10108A9CF01082D
:10012000E1D10108E1D10108E1D10108E1D10108E3
:1001300000000000000000000000000000000000BF
:1001400000000000000000000000000000000000AF
:10015000000000000000000000000000000000009F
:10016000000000000000000000000000000000008F
:10017000000000000000000000000000000000007F
:10018000000000000000000000000000000000006F
:10019000000000000000000000000000000000005F
:1001A000000000000000000000000000000000004F
:1001B000000000000000000000000000000000003F
:1001C000000000000000000000000000000000002F
:1001D000000000000000000000000000000000001F
:0401E0005FF8E0F1F3
:1001F00081F0004102E000BF83F0004330B54FEAD8
:1002000041044FEA430594EA050F08BF90EA020F44
:100210001FBF54EA000C55EA020C7FEA645C7FEAD7
:10022000655C00F0E2804FEA5454D4EB5555B8BFFA
:100230006D420CDD2C4480EA020281EA030382EA6B
:10024000000083EA010180EA020281EA0303362DFD
:1002500088BF30BD11F0004F4FEA01314FF4801CD0
:100260004CEA113102D0404261EB410113F0004FE2
:100270004FEA03334CEA133302D0524263EB430399
:1002800094EA050F00F0A780A4F10104D5F1200E37
:100290000DDB02FA0EFC22FA05F2801841F1000192
:1002A00003FA0EF2801843FA05F359410EE0A5F166
:1002B00020050EF1200E012A03FA0EFC28BF4CF097
:1002C000020C43FA05F3C01851EBE37101F000454D
:1002D00007D54FF0000EDCF1000C7EEB00006EEB5A
:1002E0000101B1F5801F1BD3B1F5001F0CD34908E4
:1002F0005FEA30004FEA3C0C04F101044FEA44523B
:1003000012F5800F80F09A80BCF1004F08BF5FEAC1
:10031000500C50F1000041EB045141EA050130BDA1
:100320005FEA4C0C404141EB0101013C28BFB1F5B3
:10033000801FE9D291F0000F04BF01460020B1FAFE
:1003400081F308BF2033A3F10B03B3F120020CDAD1
:100350000C3208DD02F1140CC2F10C0201FA0CF0AF
:1003600021FA02F10CE002F11402D8BFC2F1200C14
:1003700001FA02F120FA0CFCDCBF41EA0C019040CA
:10038000E41AA2BF01EB0451294330BD6FEA040413
:100390001F3C1CDA0C340EDC04F11404C4F12002FE
:1003A00020FA04F001FA02F340EA030021FA04F310
:1003B00045EA030130BDC4F10C04C4F1200220FA67
:1003C00002F001FA04F340EA0300294630BD21FAA5
:1003D00004F0294630BD94F0000F83F4801306BF6B
:1003E00081F480110134013D4EE77FEA645C18BF5F
:1003F0007FEA655C29D094EA050F08BF90EA020FF6
:1004000005D054EA000C04BF1946104630BD91EAED
:10041000030F1EBF0021002030BD5FEA545C05D1F0
:100420004000494128BF41F0004130BD14F580042F
:100430003CBF01F5801130BD01F0004545F0FE41A3
:1004400041F470014FF0000030BD7FEA645C1ABFD8
:10045000194610467FEA655C1CBF0B46024650EA0F
:10046000013406BF52EA033591EA030F41F400213B
:1004700030BD00BF90F0000F04BF0021704730B5C1
:100480004FF4806404F132044FF000054FF0000196
:1004900050E700BF90F0000F04BF0021704730B557
:1004A0004FF4806404F1320410F0004548BF40422C
:1004B0004FF000013EE700BF42004FEAE2014FEA81
:1004C00031014FEA02701FBF12F07F4393F07F4F5C
:1004D00081F06051704732F07F4208BF704793F05F
:1004E0007F4F04BF41F40021704730B54FF4607472
:1004F00001F0004521F000411CE700BF50EA010275
:1005000008BF704730B54FF000050AE050EA01021D
:1005100008BF704730B511F0004502D5404261EB8D
:1005200041014FF4806404F132045FEA915C3FF4CE
:10053000D8AE4FF003025FEADC0C18BF03325FEA6B
:10054000DC0C18BF033202EBDC02C2F1200300FA1C
:1005500003FC20FA02F001FA03FE40EA0E0021FA41
:1005600002F11444BDE600BF70B54FF0FF0C4CF42F
:10057000E06C1CEA11541DBF1CEA135594EA0C0FE1
:1005800095EA0C0F00F0DEF82C4481EA030621EA1C
:100590004C5123EA4C5350EA013518BF52EA033557
:1005A00041F4801143F4801338D0A0FB02CE4FF009
:1005B0000005E1FB02E506F00042E0FB03E54FF039
:1005C0000006E1FB03569CF0000F18BF4EF0010E31
:1005D000A4F1FF04B6F5007F64F5407404D25FEA2D
:1005E0004E0E6D4146EB060642EAC62141EA5551E0
:1005F0004FEAC52040EA5E504FEACE2EB4F1FD0C22
:1006000088BFBCF5E06F1ED8BEF1004F08BF5FEA9F
:10061000500E50F1000041EB045170BD06F0004651
:1006200046EA010140EA020081EA0301B4EB5C04FE
:10063000C2BFD4EB0C0541EA045170BD41F48011F6
:100640004FF0000E013C00F3AB8014F1360FDEBF1B
:10065000002001F0004170BDC4F10004203C35DAF7
:100660000C341BDC04F11404C4F1200500FA05F37A
:1006700020FA04F001FA05F240EA020001F000421B
:1006800021F0004110EBD37021FA04F642EB060191
:100690005EEA430E08BF20EAD37070BDC4F10C04BB
:1006A000C4F1200500FA04F320FA05F001FA04F27F
:1006B00040EA020001F0004110EBD37041F100016B
:1006C0005EEA430E08BF20EAD37070BDC4F1200576
:1006D00000FA05F24EEA020E20FA04F301FA05F2DE
:1006E00043EA020321FA04F001F0004121FA04F286
:1006F00020EA020000EBD3705EEA430E08BF20EA56
:10070000D37070BD94F0000F0FD101F0004640008F
:1007100041EB010111F4801F08BF013CF7D041EA11
:10072000060195F0000F18BF704703F00046520015
:1007300043EB030313F4801F08BF013DF7D043EAE6
:100740000603704794EA0C0F0CEA135518BF95EA9C
:100750000C0F0CD050EA410618BF52EA4306D1D123
:1007600081EA030101F000414FF0000070BD50EA42
:10077000410606BF1046194652EA430619D094EACC
:100780000C0F02D150EA013613D195EA0C0F05D1B6
:1007900052EA03361CBF104619460AD181EA03010A
:1007A00001F0004141F0FE4141F470014FF00000C2
:1007B00070BD41F0FE4141F4780170BD70B54FF05D
:1007C000FF0C4CF4E06C1CEA11541DBF1CEA1355DD
:1007D00094EA0C0F95EA0C0F00F0A7F8A4EB0504BF
:1007E00081EA030E52EA03354FEA013100F08880B6
:1007F0004FEA03334FF0805545EA131343EA12637F
:100800004FEA022245EA111545EA10654FEA002633
:100810000EF000419D4208BF964244F1FD0404F5EC
:10082000407402D25B084FEA3202B61A65EB030548
:100830005B084FEA32024FF480104FF4002CB6EB05
:10084000020E75EB030E22BFB61A754640EA0C0085
:100850005B084FEA3202B6EB020E75EB030E22BFC5
:10086000B61A754640EA5C005B084FEA3202B6EB06
:10087000020E75EB030E22BFB61A754640EA9C00C5
:100880005B084FEA3202B6EB020E75EB030E22BF95
:10089000B61A754640EADC0055EA060E18D04FEA53
:1008A000051545EA16754FEA06164FEAC30343EAF3
:1008B00052734FEAC2025FEA1C1CC0D111F4801FC0
:1008C0000BD141EA00014FF000004FF0004CB6E7B9
:1008D00011F4801F04BF01430020B4F1FD0C88BF58
:1008E000BCF5E06F3FF6AFAEB5EB030C04BFB6EB63
:1008F000020C5FEA500C50F1000041EB045170BD56
:100900000EF0004E4EEA113114EB5C04C2BFD4EB82
:100910000C0541EA045170BD41F480114FF0000E06
:10092000013C90E645EA060E8DE60CEA135594EA82
:100930000C0F08BF95EA0C0F3FF43BAF94EA0C0F85
:100940000AD150EA01347FF434AF95EA0C0F7FF4FA
:1009500025AF104619462CE795EA0C0F06D152EA4E
:1009600003353FF4FDAE1046194622E750EA410632
:1009700018BF52EA43067FF4C5AE50EA41047FF443
:100980000DAF52EA43057FF4EBAE12E74FEA4102A6
:10099000B2F1E04324BFB3F5001CDCF1FE5C0DD9DD
:1009A00001F0004C4FEAC0024CEA5070B2F1004F27
:1009B00040EB830008BF20F00100704711F0804F2A
:1009C00021D113F13872BCBF01F00040704741F4EF
:1009D00080114FEA5252C2F11802C2F1200C10FAF3
:1009E0000CF320FA02F018BF40F001004FEAC123D7
:1009F0004FEAD32303FA0CFC40EA0C0023FA02F37B
:100A00004FEA4303CCE77FEA625307D150EA013350
:100A10001EBF4FF0FE4040F44000704701F0004020
:100A200040F0FE4040F40000704700BF80F00040FE
:100A300002E000BF81F0004142001FBF5FEA4103B6
:100A400092EA030F7FEA226C7FEA236C6AD04FEAB6
:100A50001262D2EB1363C1BFD218414048404140FB
:100A6000B8BF5B42192B88BF704710F0004F40F4AD
:100A7000000020F07F4018BF404211F0004F41F4C9
:100A8000000121F07F4118BF494292EA030F3FD095
:100A9000A2F1010241FA03FC10EB0C00C3F12003A8
:100AA00001FA03F100F0004302D5494260EB400037
:100AB000B0F5000F13D3B0F1807F06D340084FEAA2
:100AC000310102F10102FE2A51D2B1F1004F40EB97
:100AD000C25008BF20F0010040EA030070474900FF
:100AE00040EB0000013A28BFB0F5000FEDD2B0FA9C
:100AF00080FCACF1080CB2EB0C0200FA0CF0AABFBF
:100B000000EBC25052421843BCBFD040184370475C
:100B100092F0000F81F4000106BF80F40000013262
:100B2000013BB5E74FEA41037FEA226C18BF7FEA39
:100B3000236C21D092EA030F04D092F0000F08BF7B
:100B40000846704790EA010F1CBF0020704712F062
:100B50007F4F04D1400028BF40F00040704712F1A1
:100B600000723CBF00F50000704700F0004343F006
:100B7000FE4040F4000070477FEA226216BF08463C
:100B80007FEA23630146420206BF5FEA412390EAFF
:100B9000010F40F4800070474FF0000304E000BFF5
:100BA00010F0004348BF40425FEA000C08BF7047A6
:100BB00043F0964301464FF000001CE050EA01026A
:100BC00008BF70474FF000030AE000BF50EA01027F
:100BD00008BF704711F0004302D5404261EB41016C
:100BE0005FEA010C02BF84460146002043F0B64391
:100BF00008BFA3F18053A3F50003BCFA8CF2083AB6
:100C0000A3EBC25310DB01FA02FC634400FA02FCBE
:100C1000C2F12002BCF1004F20FA02F243EB0200C5
:100C200008BF20F00100704702F1200201FA02FC27
:100C3000C2F1200250EA4C0021FA02F243EB02001A
:100C400008BF20EADC7070474FF0FF0C1CEAD0525E
:100C50001EBF1CEAD15392EA0C0F93EA0C0F6FD01F
:100C60001A4480EA010C400218BF5FEA41211ED0FD
:100C70004FF0006343EA501043EA5111A0FB0131E9
:100C80000CF00040B1F5000F3EBF490041EAD371BE
:100C90005B0040EA010062F17F02FD2A1DD8B3F13A
:100CA000004F40EBC25008BF20F00100704790F0A9
:100CB000000F0CF0004C08BF49024CEA502040EAFB
:100CC00051207F3AC2BFD2F1FF0340EAC2507047C1
:100CD00040F400004FF00003013A5DDC12F1190FFF
:100CE000DCBF00F000407047C2F10002410021FA71
:100CF00002F1C2F1200200FA02FC5FEA310040F189
:100D0000000053EA4C0308BF20EADC70704792F001
:100D1000000F00F0004C02BF400010F4000F013A39
:100D2000F9D040EA0C0093F0000F01F0004C02BF34
:100D3000490011F4000F013BF9D041EA0C018FE7A3
:100D40000CEAD15392EA0C0F18BF93EA0C0F0AD0A9
:100D500030F0004C18BF31F0004CD8D180EA0100CF
:100D600000F00040704790F0000F17BF90F0004F68
:100D7000084691F0000F91F0004F14D092EA0C0F4A
:100D800001D142020FD193EA0C0F03D14B0218BFDD
:100D9000084608D180EA010000F0004040F0FE4023
:100DA00040F40000704740F0FE4040F440007047BF
:100DB0004FF0FF0C1CEAD0521EBF1CEAD15392EA3E
:100DC0000C0F93EA0C0F69D0A2EB030280EA010C2E
:100DD00049024FEA402037D04FF0805343EA1111C7
:100DE00043EA10130CF000408B4238BF5B0042F125
:100DF0007D024FF4000C8B4224BF5B1A40EA0C00CA
:100E0000B3EB510F24BFA3EB510340EA5C00B3EBFB
:100E1000910F24BFA3EB910340EA9C00B3EBD10FE9
:100E200024BFA3EBD10340EADC001B0118BF5FEA3B
:100E30001C1CE0D1FD2A3FF650AF8B4240EBC25064
:100E400008BF20F0010070470CF0004C4CEA502025
:100E50007F32C2BFD2F1FF0340EAC250704740F474
:100E600000004FF00003013A37E792F0000F00F066
:100E7000004C02BF400010F4000F013AF9D040EAE4
:100E80000C0093F0000F01F0004C02BF490011F478
:100E9000000F013BF9D041EA0C0195E70CEAD15370
:100EA00092EA0C0F08D142027FF47DAF93EA0C0F57
:100EB0007FF470AF084676E793EA0C0F04D14B023B
:100EC0003FF44CAF08466EE730F0004C18BF31F0ED
:100ED000004CCAD130F000427FF45CAF31F00043E7
:100EE0007FF43CAF5FE700BF4FEA4002B2F1FE4F34
:100EF0000FD34FF09E03B3EB12620DD94FEA0023DC
:100F000043F0004310F0004F23FA02F018BF4042B4
:100F100070474FF00000704712F1610F01D142029B
:100F200005D110F0004008BF6FF0004070474FF04F
:100F30000000704780EA010C1CF0030F37D110F05D
:100F4000030C20F0030021F0030150F8042B08BF2C
:100F500051F8043B0ED08CF0030C6FF07F434FEA46
:100F6000CC0C23FA0CFC51F8043B42EA0C0243EA95
:100F70000C0300BFA2F1013C9A4201BF2CEA020C13
:100F80001CF0803F50F8042B51F8043BF2D04FEA9C
:100F900002604FEA1222012828BFB0EB036F08BF9E
:100FA0001B0AF4D003F0FF03000EC01A704710F0C4
:100FB000030F0AD010F8012B11F8013B012A28BFBA
:100FC0009A42F4D0A2EB030070474DF8045D50F84C
:100FD000042B01F0030521F0030151F8043B022D1D
:100FE00026D04DD822F07F45B5EB132FA2F1013C5E
:100FF0002CEA020C0DD11CF0803C08BF51F8043BD8
:101000000AD185EA0205B5EB036F0CD150F8042B29
:10101000E8E74FEA13235BE03CF07F4C54D10B78B8
:101020004FEA126554E04FEA126503F0FF034FE008
:101030004FEA0245A2F1013C4FEA15452CEA020CA9
:10104000B5EB134F18D11CF0803C08BF51F8043B9E
:1010500007D185EA0205B5EB034F09D150F8042BFF
:10106000E6E75FEA0C4C2FD10B884FEA12452FE0E0
:101070004FEA03434FEA12454FEA134328E000BF0B
:1010800002F0FF05B5EB136FA2F1013C2CEA020C54
:101090000DD11CF0803C08BF51F8043B0AD185EA11
:1010A0000205B5EB032F0AD150F8042BE8E74FEA0D
:1010B00013630DE012F0FF0F06D051F8043B4FEA26
:1010C000122523F07F4303E04FF0000020BC70475F
:1010D00005F0FF0203F0FF00012828BF904204BF83
:1010E0002D0A1B0AF4D0A2EB000020BC704700BF01
:1010F000844641EA000313F0030349D1403A23D365
:101100000B6803604B6843608B688360CB68C36087
:101110000B6903614B6943618B698361CB69C3616F
:101120000B6A03624B6A43628B6A8362CB6AC36257
:101130000B6B03634B6B43638B6B8363CB6BC3633F
:1011400040304031403ADBD230320BD30B68036081
:101150004B6843608B688360CB68C360103010318C
:10116000103AF3D20C3205D351F8043B40F8043B5B
:10117000043AF9D2043208D0D2071CBF11F8013B5F
:1011800000F8013B01D30B8803806046704700BF25
:10119000082A13D38B07B1D010F00303AED0C3F1EC
:1011A0000403D21ADB071CBF11F8013B00F8013B16
:1011B000A4D331F8023B20F8023B9FE7043AD9D38D
:1011C000013A11F8013B00F8013BF9D20B780370AA
:1011D0004B7843708B788370604670474FF0FF3CCC
:1011E00006E000BF4FF0010C02E000BF4FF0010C21
:1011F0004DF804CD4FEA410C7FEA6C5C4FEA430C9A
:1012000018BF7FEA6C5C1BD001B050EA410C0CBFE8
:1012100052EA430C91EA030F02BF90EA020F00204A
:10122000704710F1000F91EA030F58BF994208BFB1
:1012300090422CBFD8176FEAE37040F0010070476E
:101240004FEA410C7FEA6C5C02D150EA013C07D1C5
:101250004FEA430C7FEA6C5CD6D152EA033CD3D010
:101260005DF8040B704700BF8446104662468C460A
:101270001946634600E000BF01B5FFF7B7FF00283D
:1012800048BF10F1000F01BD4DF808EDFFF7F4FF66
:101290000CBF012000205DF808FB00BF4DF808EDF1
:1012A000FFF7EAFF34BF012000205DF808FB00BF14
:1012B0004DF808EDFFF7E0FF94BF012000205DF836
:1012C00008FB00BF4DF808EDFFF7CEFF94BF0120EB
:1012D00000205DF808FB00BF4DF808EDFFF7C4FFE4
:1012E00034BF012000205DF808FB00BF4FEA410C2D
:1012F0007FEA6C5C02D150EA013C0AD14FEA430C10
:101300007FEA6C5C02D152EA033C02D14FF000004C
:1013100070474FF0010070474FEA410212F500128A
:1013200015D211D56FF47873B3EB625212D94FEA2C
:10133000C12343F0004343EA505311F0004F23FA16
:1013400002F018BF404270474FF00000704750EA6B
:10135000013005D111F0004008BF6FF00040704728
:101360004FF00000704700BF0348044B834202D097
:10137000034B03B1184770470807002008070020F7
:10138000000000000548064B1B1AD90F01EBA30112
:10139000491002D0034B03B11847704708070020DB
:1013A000080700200000000010B5064C237843B960
:1013B000FFF7DAFF044B13B10448AFF300800123B9
:1013C000237010BD0807002000000000F875020817
:1013D00008B5054B1BB105490548AFF30080BDE8D2
:1013E0000840FFF7CFBF00BF000000000C0700203F
:1013F000F87502082DE9F041002001F003FCA04E31
:10140000306042F2720101F009FC002422462146BC
:10141000306805F019FF2246FF21306805F01BFFF8
:10142000306818F087FB974D28600F2102F01AFCF6
:10143000A021286802F02DFC6FF06301286802F0FB
:10144000D9FB0A21286802F0ECFB0921286802F088
:1014500089FC4BF20401286801F0E0FB224621469A
:10146000286818F073FB78226FF07701286818F06D
:10147000CDFB0121286818F0B3FB306818F05AFB47
:10148000814D28600F2102F0EDFBA021286802F0B9
:1014900000FC6421286802F0ADFB0A21286802F0F4
:1014A000C0FB0921286802F05DFC4BF204012868AA
:1014B00001F0B4FB22462146286818F047FB782249
:1014C0006FF07701286818F0A1FB0121286818F057
:1014D00087FB306819F0D4FE6C4D28606C4919F018
:1014E000DBFE42F2D171286802F0BCFB42F2D171FE
:1014F000286802F0CEFB6FF03E01286802F07AFB0C
:101500006FF06301286802F08CFB0921286802F063
:1015100029FC4BF20601286801F080FB4FF6FF77AB
:1015200022463946286805F09DFE2246FF2128689C
:1015300005F09FFEDFF85C8122464146286805F0F1
:101540009FFE306819F09CFE534D2860534919F0F6
:10155000A3FE42F2D171286802F084FB42F2D171FD
:10156000286802F096FB5321286802F043FB6FF0D5
:101570006301286802F055FB0921286802F0F2FB9C
:101580004BF20601286801F049FB224639462868DB
:1015900005F068FE2246FF21286805F06AFE224613
:1015A0004146286805F06CFE306817F003FA3C4DA0
:1015B0002860962102F056FB9621286802F069FB0C
:1015C0002146286802F016FB1E21286802F029FB3C
:1015D0000921286802F0C6FB4BF27631286801F039
:1015E0001DFB6FF031023221286817F0C5FB4FF464
:1015F000B472F021286817F062FB0121286817F007
:1016000084FB9621286817F065FB306819F00AFF03
:10161000244D286042F2D17102F024FB42F2D171D4
:10162000286802F036FB4FF40051286802F0E2FA15
:1016300042F2F231286802F0F4FA0921286802F037
:1016400091FB194928681AF085FA4BF27431286821
:1016500001F0E4FA22463946286805F003FE2246E6
:10166000FF21286805F005FE22460321286805F0C1
:101670000EFE22460D49286805F002FEBDE8F08105
:10168000400700203C0700203807002034070020D6
:101690002876020878830208300700203076020896
:1016A0002C0700202807002034760208B4780208AE
:1016B00030B583B013F06EFD0446052014F072FCC3
:1016C0000546002014F06EFC02460C4B00930023EC
:1016D0002946204612F06AFC0146204600F0C0F878
:1016E000FFF788FE002001F08DFA054B1860054BCE
:1016F000186800F051FA03B030BD00BF78830208CB
:1017000024070020400700200A38C0B204288CBFFC
:1017100000200120704708B50022C9B205F0BEFDC7
:1017200008BD08B509B202F07CFA08BD08B509B2D7
:1017300002F060FA08BD38B50546006805F0C2FD44
:10174000044600222721006900F026FB0022282100
:10175000606900F021FB606920B194F8283013F033
:10176000020F10D10022626194F8283062F3000366
:1017700084F82830A2616021286805F0F5FA206914
:1017800002F0E1FE38BD05F079FEEBE770B50446E6
:1017900005F098FD08B30546066926B1002225210B
:1017A000304600F0F9FA2B6923B1002226212046A9
:1017B00000F0F2FA2C610023AB6124B11A46272114
:1017C000204600F0E9FA2B6923B100222821304697
:1017D00000F0E2FA204602F0B6FE70BD08B50346FE
:1017E00008B1186908BD13F0D5FC03460028F8D1EC
:1017F000F8E708B513F0CEFCFFF7F0FF08BD38B5E9
:101800000546006805F05EFD0446FFF7F2FF6061E3
:10181000286820610022262100F0BEFA38BD08B5F4
:10182000034608B1586908BD13F0B4FC034600280C
:10183000F8D1F8E708B5034608B1D86908BD13F038
:10184000A9FC03460028F8D1F8E708B5034608B11B
:10185000186A08BD13F09EFC03460028F8D1F8E78B
:1018600038B50C46054620B1AC606B6A032B06D038
:1018700038BD13F08FFC05460028F5D1F8E7EB687A
:10188000186805F052FD0028F2D1EB68586805F0A1
:101890004CFD0028ECD1EB68986805F046FD002867
:1018A000E6D1EB68186806F0BDFFE1E708B503462E
:1018B00008B1986808BD13F06DFC0346F9E7000015
:1018C0002DE9F047A2B00546884691461E469DF890
:1018D000A8A005F0F7FC0446FFF78BFF854200F057
:1018E000A1800746A069A84200F09C80A8B1FFF73C
:1018F0004DFF0021A06913F005FE00221146A069EA
:1019000002F0A6F900226021A06905F02DFA94F8F2
:10191000283013F0020F61D1A769A561606920B179
:1019200094F8283013F0020F5CD14046FFF7ECFE2C
:1019300094F8283060F3000384F82830DBB26AF3AF
:10194000410384F828300021284613F0DBFDFFF71F
:1019500050FF002113F0D6FD00221146284602F068
:1019600077F9FFF746FF0022114602F071F90022D5
:101970006021284605F0F8F9FFF73BFF00226021BF
:1019800005F0F2F9B9F1000F00D186B311A813F0F8
:101990009FFD11957B4B13937B4B1493CDF8709067
:1019A00076421D96684613F093FD23690093CDF8A7
:1019B0002C900C96B8F10E0F29D8DFE818F0220011
:1019C000360040004B005500600072008400960015
:1019D000A800B000B800C300CD00D800384605F01C
:1019E0004DFD99E705F04AFD002363619DE7284618
:1019F000FFF7CCFEBAF1000F14D0384605F03EFDDB
:101A000010E0624B1293002319931A931B93002248
:101A10002521384600F0C0F911A813F0A5FD68464D
:101A200013F0A2FD22B0BDE8F087584B1293204678
:101A300013F0B6FB19901A9000231B93E7E7534B62
:101A40001293204613F0ACFB404219901A900023E9
:101A50001B93DCE74E4B1293204613F0B9FB199011
:101A60001A9000231B93D2E7494B1293204613F0A0
:101A7000AFFB404219901A9000231B93C7E7434ED7
:101A80001296204613F08CFB19901A9000251B9596
:101A90000196204613F084FB4042089509950A9070
:101AA000B5E73A4E1296204613F07AFB4042199061
:101AB0001A9000251B950196204613F071FB08959E
:101AC00009950A90A3E7324E1296204613F080FB48
:101AD00019901A9000251B950196204613F078FB6B
:101AE0004042089509950A9091E7294E12962046A2
:101AF00013F06EFB404219901A9000251B95019639
:101B0000204613F065FB089509950A907FE7214B65
:101B10001293002319931A93FF231B9377E71D4B0E
:101B20000193FF230893099300230A936FE7174B50
:101B30000193204613F034FB40420023089309939D
:101B40000A9064E7114B0193204613F029FB002310
:101B5000089309930A905AE70D4B0193204613F01E
:101B600037FB40420023089309930A904FE7084B44
:101B70000193204613F02CFB0023089309930A904D
:101B800045E700BFFF170008371700082D170008AA
:101B9000231700081717000800B583B00021009133
:101BA0000B460A46FFF78CFE03B05DF804FB08B550
:101BB000034630B1D3F854010028D4BF00200120DF
:101BC00008BD13F0E7FA03460028F3D10020F7E739
:101BD000806858B1837E03F03F038B4205D9C0680B
:101BE00001EB410100EB81007047002070470000CD
:101BF000037E13F0040F1ED110B50446037A233B75
:101C0000012B01D8012010BD4FF48041406801F044
:101C10005CF80028F7D0237A113BDBB21B2B94BF72
:101C20000021012149B9064A22FA03F313F0010FFA
:101C3000E9D00846E7E7002070470846E3E700BF21
:101C4000FF270F0B10B50C4608B1006803E04B6886
:101C5000186800E0006810B10369002BFAD060B189
:101C6000036963B10023E360036921469847237E3B
:101C700013F0010F05D1012010BD0120FCE7012068
:101C8000FAE70020F8E7F8B5064600F0B1FA58B1D7
:101C9000006883680BB1317A9847337E13F00207EE
:101CA00074D113F0010F5BD100217068FFF790FF32
:101CB0000446002511E06368F360236830469847C6
:101CC000337E13F0020763D113F0010F48D10135C1
:101CD00029467068FFF77CFF04467CB12368002B1F
:101CE000F5D0237A94F90820002AF0DA802BE2D08C
:101CF00023F08003327A9342E9D1DCE731460020B9
:101D0000FFF7A0FF074620B100217068FFF760FFD2
:101D10000446002511E06368F36023683046984765
:101D2000337E13F002021BD113F0010F32D10135C3
:101D300029467068FFF74CFF04467CB1012F0DD196
:101D40002368002BF3D0227A94F90830002BEEDBC5
:101D5000002AE0D0337A9A42E9D1DCE7012F01D0A2
:101D60003846F8BD73685B68002BF9D03046FFF742
:101D70003FFF0028F4D073685B6873603046FFF75C
:101D800082FF07460128EBD00027E9E70127E7E7B4
:101D90000127E5E71746E3E718B310B588B00190CF
:101DA00002908DF80C100023049305929DF81C20DE
:101DB00063F300028DF81C20D2B263F382028DF827
:101DC0001C20D2B263F341028DF81C20064C23681C
:101DD000069301A82060FFF756FF069B236008B01A
:101DE00010BD0120704700BF4C07002000687047FD
:101DF00040687047007A00F07F00704700697047C4
:101E0000084B1B6804E01A7E42F001021A765B69F7
:101E100033B15A688242F6D01A688242F7D1F2E7AB
:101E2000704700BF4C07002008B5037A013BDBB2C6
:101E30000F2B02D8FFF7E2FF08BD0020FCE708B532
:101E4000027AA2F11403DBB2022B05D9182A03D0BF
:101E5000172A01D0192A02D1FFF7D0FF08BD0020B0
:101E6000FCE7037A132B00D0704710B50C46FFF740
:101E7000C5FFB0F90030A342B8BF2346038010BDB0
:101E8000F8B50546002013F0E3F90446002637466E
:101E900005E026462746204613F0DAF904465CB1F1
:101EA000204600F0ABF9636DAB42F4D102280ED0AE
:101EB0000428EED02646EEE70FB13846F8BD0EB145
:101EC0003746FAE7002013F0C3F90746F5E727463F
:101ED000F3E72DE9F047037F13F0010F6ED10646BB
:101EE0008A469146C5684FF001080027E5B10123F5
:101EF00057B32BB129463046C8470546874268D0BC
:101F0000002DF3D0286800F0ECFE10F0800FEDD12A
:101F10002C681CB30121204600F0D7FEC0B9204632
:101F200005F0C3F90446F4E7337F13F0080F01D13D
:101F3000002F48D1B8F1000F42D03046D0470546B7
:101F40004FF000084346D3E7002D3FD02F46D0E79F
:101F50000121204600F0B9FE0028C7D1F368AB424A
:101F60003AD08BB11C683046FFF78AFF02460F213A
:101F70002046FFF711FF012802D04FF000081FE0B4
:101F8000F368186802F0DFFAF5602C683046FFF756
:101F900077FF02460E212046FFF7FEFE012802D001
:101FA0004FF000080CE0F368186802F0CCFA3369CF
:101FB000ABB1304698474FF0010801E04FF0000800
:101FC0004046BDE8F0874FF00008F9E74FF0000801
:101FD000F6E74FF00008F3E74FF00008F0E74FF0A6
:101FE0000108EDE708B52021014814F0F5F908BD16
:101FF000100B0020014B1868704700BF50070020ED
:1020000010B50446054A0649FFF763FF63691BB133
:1020100010B901212046984710BD00BF7564010822
:102020006564010810B50446054A0649FFF751FFEB
:1020300063691BB110B900212046984710BD00BF4D
:102040007D6401086D64010838B50446037FC3F35D
:10205000C00543F008030377DBB213F0040F06D189
:10206000FFF7CEFF237F65F3C303237738BDFFF768
:10207000D9FFF7E770B5064600F03BFE002849D0CF
:102080000546C36813B11B68B34213D0EB6813B1A4
:102090001B68B34230D0284614F0E4F90446002C03
:1020A00038D02368B3422AD02146284614F0E2F9FA
:1020B0000446F4E7037F13F0010F03D0037F23F0FE
:1020C00001030377284614F0CDF9EB68834203D06F
:1020D0002846FFF7B9FFD9E7284614F0C7F9EB689F
:1020E0008342F5D11C682846FFF7CAFE02460F213D
:1020F0002046FFF751FEC9E70023EB60CBE72146FE
:10210000284614F0F1F9204614F066FBB3680BB1D1
:1021100000229A6070BD002839D070B50C46054683
:102120000846FFF7A7FF284614F09CF9014639B18D
:102130000B68A3421ED0284614F09CF90146F6E72E
:10214000204600F0D6FD30B1A3689B681BB1DB6868
:102150001B68A3420FD0A36883B1A3689D60284683
:1021600014F061F9064668B10460284614F07AF963
:10217000864208D070BDFFF767FFECE7204601F00C
:1021800025F8EAE7FEE72846FFF75EFFF2E770472B
:1021900018B1C06808B1006870477047F8B170B5F1
:1021A0000446037FC3F340038B4213D0037F61F3E4
:1021B00041030377FFF7ECFF054658B1E3681E685B
:1021C0002046FFF75DFE02460E213046FFF7E4FD94
:1021D000012800D070BD284602F0B5F9FAE7704733
:1021E00018B1007FC0F34000704700207047000026
:1021F000014B1868704700BF5807002010B10368F2
:10220000187870470020704710B50C4648B3024656
:10221000437943F002034371284B1B68834206D085
:1022200013681B78013BDBB2012B04D910BD244B92
:1022300000211960F4E734B1536BA3420ED0936AC6
:10224000A34204D101E0002353630023936214B13D
:10225000D36AA342EAD10023D362E7E700235363A2
:10226000EDE7002012F0F4FF06E0002343638362F1
:102270000023C36212F0ECFFD8B1437943F00203AC
:10228000437103681B78013BDBB2012BF2D8002CB1
:10229000EBD0436BA34206D0836AA34206D0C36A45
:1022A000A342E7D1E4E700234363F5E70023836219
:1022B000F5E7034B00221A60B8E700BF580700207B
:1022C0005407002010B50446437923F001034371FD
:1022D00012F0D8FFE06412F0D5FFA06410BD0346F1
:1022E00050B102681278012A0AD0032A08D04FF6AA
:1022F000FF730B804B80704700230B804B8070472F
:10230000B3F908200A80B3F90A304B8070470346BE
:1023100050B102681278012A01D0032A06D193F83D
:10232000440000F00F007047002070470020704705
:10233000034638B102681278012A01D0032A02D17B
:10234000186B704770470020704718B1437943F00D
:102350000803437170470000014B1868704700BFC5
:102360005407002038B505460C46084608F028FDFD
:1023700021224FF48031284604F07AFAC0B2E0708E
:1023800002283BD831224FF48031284604F070FAFD
:10239000C0B284F82200022838D845224FF4803198
:1023A000284604F065FAC0B284F83600022843D803
:1023B0004FF48031284604F0EBFEFC280DD8E3787A
:1023C00000FB03F31B12E370DBB200FB03F3C3F368
:1023D000072384F8223084F83630E3782BB994F858
:1023E000223013B994F8360038B10B224FF4803103
:1023F000284604F03DFA2080012038BD20224FF409
:102400008031284604F034FAA080BBE732224FF432
:102410008031284604F02CFA00B22084002803DC26
:10242000002384F82230B8E730224FF48031284668
:1024300004F01EFAE083B0E740224FF480312846D2
:1024400004F016FA00B2E085002803DC002384F8CB
:102450003630ADE743224FF48031284604F008FAC5
:10246000A08644224FF48031284604F001FAA0856A
:102470009EE7000070B5A4B004460D4620AA22A92C
:1024800003F040FA22A813F036F918B920A813F087
:1024900032F928B112A92046FFF764FF012801D0C4
:1024A00024B070BD2946684601F0CFFA1B4B01935A
:1024B0000223029312AB04934FF480330D9322A8AE
:1024C00013F019F9B8B920A813F015F90028E7D0CE
:1024D00020AE03966A461A212046FFF75DFC03965C
:1024E000324612A9284608F0A7FC6A461B2120465E
:1024F000FFF752FCD4E722AE03966A461A21204623
:10250000FFF74AFC324612A9284608F095FC6A46B5
:102510001B212046FFF740FCD5E700BFEC810208F5
:102520002DE9F041A2B00646FFF764FC05463046AF
:10253000FFF75CFC0446122D07D0152D6CD0182D2A
:1025400000F0048122B0BDE8F0813046FFF756FC70
:1025500005460378022BF5D017220021204604F00F
:1025600087F910B102232B70ECE70B2200212046E3
:1025700004F07EF906B269220021204604F078F9C1
:1025800007466A220021204604F072F9B4F91420AB
:10259000ADF84020B4F91630ADF84230B4F918E087
:1025A000ADF844E0B4F91AC0ADF846C091B2BAB281
:1025B000891AADF840101FFA8EFE7244ADF844201F
:1025C00099B283B2C91AADF842101FFA8CFC634469
:1025D000ADF84630324610A9686813F0ECF910B92E
:1025E00001232B70AEE721220021204604F040F9A0
:1025F000C0B2FC2802D801232B70A3E7602200217F
:10260000204604F035F9C3B2FC2B02D900232B700D
:1026100098E701232B7095E73046FFF710FC05463D
:1026200002A808F0CDFB34220021204604F020F956
:1026300028B19DF82B3043F001038DF82B3002AE0A
:1026400032460021204600F04FFF6922002120463B
:1026500004F00EF907466A220021204604F008F92A
:10266000B4F91420ADF80020B4F91630ADF80230FA
:10267000B4F918E0ADF804E0B4F91AC0ADF806C03A
:1026800091B2BAB2891AADF800101FFA8EFE7244E8
:10269000ADF804209AB283B2D21AADF802201FFA24
:1026A0008CFC6344ADF80630294610A801F0CDF942
:1026B000684B1193002712971496CDF84CD01D97B4
:1026C00010AA1A212046FFF767FB17223946204639
:1026D00004F0CEF820B1BDF908309BB93B4600E0CC
:1026E0000023069F1E460BB1002306936A4602A9EB
:1026F000284608F0A1FB3EB910AA1B212046FFF78F
:102700004BFB1FE70123ECE7182014F099F806466D
:102710000023BDF9082004F1140108F0A5FA04F51E
:102720009071304608F07AF8002FE5D000238DF83C
:102730000B308DF82A308DF832308DF83E30069708
:102740006A4602A9284608F077FBD5E73046FFF72E
:1027500076FB054601462046FFF78CFE1722002136
:10276000204604F085F8002866D134220021204656
:1027700004F07EF800283FF4E5AE02AF384608F0DA
:102780001FFB00268DF80B608DF822608DF83260FB
:102790008DF83E603A463146204600F0A5FE69229B
:1027A0003146204604F064F880466A2231462046CD
:1027B00004F05EF8B4F91420ADF80020B4F9163036
:1027C000ADF80230B4F918E0ADF804E0B4F91A102D
:1027D000ADF806101FFA82FC1FFA88F2ACEB020C6F
:1027E000ADF800C01FFA8EFE7244ADF804209BB213
:1027F00080B21B1AADF8023089B20844ADF8060069
:10280000294610A801F021F9124B119301231293CC
:102810001497CDF84CD01D9610AA1A212046FFF728
:10282000BBFA6A463946284608F006FB10AA1B2167
:102830002046FFF7B1FA85E604F5907008F044F8F9
:102840000646002891D008F059F8304614F05AF89E
:102850008BE700BFEC8102082DE9F0410C464D6882
:1028600025B3284602F01EFC0746284602F0BAFBB4
:102870008046EE8A10220021284603F0F9FF80B23C
:1028800033189BB2A3EB08039AB2E382531E63830F
:10289000AE8A12220021284603F0EAFF80B20644E5
:1028A000B6B2F01B83B2A082013B23830223E36113
:1028B00041F20203E3612DB143F20203E36143F20B
:1028C0000233E361E36943F00402E26143F014027E
:1028D000E26143F03402E26143F07402E26143F4E6
:1028E000076242F00402E26125B143F4084343F079
:1028F0007403E361BDE8F08138B5844614468388EB
:102900004FF6FF72934219D0C07948B3012842D9DB
:10291000DCF80050864605EB800C002326E012F41C
:10292000004F4DD112F4804F04D1DEF80430236003
:10293000012015E014F002FA2060F9E700239CF86A
:1029400007209A420BD9DCF8000000EBC30E30F8E8
:102950003320C2F30D008142E1D00133EFE70020C4
:1029600038BD14F0EBF9206011E001339E4510D919
:102970003CF81320C2F30D008142F6D112F4004F4F
:1029800020D112F4804FECD155F823302360012080
:10299000E6E70020E4E7C3F30D00814201D0002008
:1029A000DEE713F4004F0FD113F4804F04D1DCF8AD
:1029B000003023600120D3E714F0C0F92060F9E76C
:1029C0000220CDE70220CBE70220C9E72DE9F04F36
:1029D0008FB00591078C8F4208D004460D460184C4
:1029E0000A46394603F078FD064610B90FB0BDE837
:1029F000F08F4FF4207013F023FF83464FF42071C3
:102A000014F06FF84FF00009CA460797089627465A
:102A10004C46A94654E00134A74218D904EB84057A
:102A20000BEB85056E68304603F054FD029030468E
:102A300003F086FE2A89D8F8003033F809309A422C
:102A4000E9D18245E7D1039B029A9342E3D8049DE2
:102A5000A7420CD00135D8F800304FEA450933F8C9
:102A600015303BB31F2F1FD800240495D4E7D8F8A6
:102A70000C1007EB87000BEB80032BF82010D8F825
:102A800010105980D8F80810D960D8F8001031F823
:102A900009101981D8F804101961069A5168C1F318
:102AA000170159600137D5E7BA46099C0A9FDDF83E
:102AB0002C9004E0BA46099C0A9FDDF82C90013462
:102AC0007B8CC3F30513A3425CD9BAF11F0F2FD837
:102AD000D7F80C80E60008EBC405686820F07F405A
:102AE00003F0F8FC0390FB683344586820F07F4003
:102AF00003F026FE0290039B33EA0903DFD1EB7952
:102B000013F0020FDBD10DAA672158F80600FFF77A
:102B1000F3FE0128D3D1DDF8348000260994069510
:102B200035460A975746DDF808A0CDF82C9092E775
:102B3000089E3C46079F0025B846DDF814900EE03D
:102B400005EB85070BEB8707786803F0F9FD014675
:102B500000974B464246204603F000FF0135AA4548
:102B6000EED8584613F0CEFE012E13D0032E15D00A
:102B7000022E7FF43BAF204601F0E5FC204600F03A
:102B800073FF33E7089E3C46079F0025B846DDF8F3
:102B90001490E4E7204601F0D6FC27E74FF6FF72D9
:102BA0004FF47021204603F09BFF1FE708B5124B3E
:102BB0001B7803B108BD13F0E3FD14F069FC13F0BA
:102BC000EFFA12F06BFCFFF70DFA05F03DFE03F093
:102BD00051FC4FF4B471094813F0FEFB5C21084826
:102BE00013F0FAFB05F0ECF808F05CFE10F07CF94D
:102BF000014B01221A70DDE760070020400B002026
:102C0000340B002010B50146034800F029FB0446B0
:102C100000F0C5FB204610BDEC81020870B584B001
:102C200004460D4601F04CF8064615F0100F15D17C
:102C3000E36923EA0503E36115F0010F1CD1204687
:102C400001F03EF8B04202D115F0C07F04D020461A
:102C500004F02BFB01F04EF804B070BD02AA6946E7
:102C6000204602F04FFE6946204601F044FC02A9CE
:102C7000204601F040FCDBE7204601F064FC2046E2
:102C800001F01EF80028DAD0204604F00EFB01F017
:102C900031F8204601F02EF8D1E708B5038C43EA5D
:102CA000010231EA030300D108BD1146FFF78EFE91
:102CB000FAE708B5028CCB431BB202EA03019A4340
:102CC00000D108BDFFF782FEFBE7C36999430CBF43
:102CD000012000207047C3690B4214BF012000206F
:102CE0007047008C7047038C0B4214BF01200020FA
:102CF0007047806800B180687047F0B585B00E46B7
:102D00000846FFF777F804463046FFF771F80546A6
:102D1000631E292B2ED8DFE813F02A002D00540063
:102D20002D002D002D002D002F00640168012D00C5
:102D30002D00670033017F012D002D00D801D00147
:102D40002D00D8012D002D00D8012D002D002D00C3
:102D50002D002D002D002D002D002D00A3012D0094
:102D6000C7012D002D002D002D00830158002021CA
:102D7000FFF793FF05B0F0BD2021FFF79AFF304623
:102D8000FFF752F8FFF7D4FA0028F3D108212846BC
:102D9000FFF79BFF0028EDD02846FFF7A2FF10F0B9
:102DA000010F09D101212846FFF777FF00221C21DE
:102DB0002846FEF7F1FFDDE701212846FFF779FFFE
:102DC000F4E72021FFF775FFD4E704F0AEFA0646DA
:102DD000002406E0AB681B6853F8240000F08AFF6B
:102DE0000134B442F6D3C5E70821FFF76EFFF0B90E
:102DF0004FF401612846FFF768FF0028BAD0284643
:102E000000F0A7FA0028B5D1284602F04BF9074692
:102E1000284602F0B9F904463046FEF7EFFF037882
:102E2000113B032BA6D8DFE803F0331F4779304668
:102E3000FEF7E4FF0478A4F11103032B07D8DFE8C1
:102E400003F0020E020E01212846FFF726FF0A2C8E
:102E500090D000221C212846FEF79EFF8AE7012120
:102E60002846FFF726FFF2E7284602F0B3F884B2BF
:102E7000284600F090FF0246002807DB04EBA20181
:102E8000002209B2284602F04BFB73E7C21CF5E7AB
:102E9000284602F09FF884B2284600F07CFF0246E4
:102EA000002807DBA4EBA201002209B2284602F0A9
:102EB00037FB5FE7C21CF5E7284602F06BF810F01D
:102EC000030F15D0002F01DC002C11DD284602F085
:102ED00079F884B2284600F057FF024600281BDB31
:102EE00004EBA201002209B2284602F005FB41E7EB
:102EF000284602F06FF884B2284600F04CFF0246E4
:102F0000002807DB04EBA201002209B2284602F0E8
:102F100007FB2FE7C21CF5E7C21CE1E7284602F0D9
:102F200039F810F0030F15D0002F01DC002C11DD53
:102F3000284602F047F884B2284600F025FF0246F2
:102F400000281BDBA4EBA201002209B2284602F0F4
:102F5000D3FA0FE7284602F03DF884B2284600F085
:102F60001AFF0246002807DBA4EBA201002209B2E7
:102F7000284602F0D5FAFDE6C21CF5E7C21CE1E7DF
:102F80004FF48061FFF7A1FEB0B92846FFF7B1FE0C
:102F9000FFF726F90446FFF72BF990B1FFF72EF95A
:102FA000022812D0042812D0022194B141F0080165
:102FB0002846FFF772FEDDE60121284602F082FC7A
:102FC000E3E73046FEF730FFE8E70621EDE70621AC
:102FD000EBE72846FFF761FE08212846FFF769FE68
:102FE000C8E64021FFF759FEC4E64021FFF761FE25
:102FF000284601F0C7FF02287FF4BCAE02AA69464A
:10300000284602F07FFC6946284601F074FA02A9BE
:10301000284601F070FAADE60E21FFF74AFEA9E658
:103020000922002103F024FCC4B20A220021284610
:1030300003F01EFC80B200B914B1284600F05AFE1D
:10304000284604F072F90646002406E0AB681B68C7
:1030500053F8240000F04EFE0134B442F6D389E662
:103060000122002103F004FC07B2042200212846BB
:1030700003F0FEFB06B209220021284603F0F8FB0C
:10308000C4B20A220021284603F0F2FB80B238B90C
:1030900034B942F2D1739F4202D09E427FF46AAEAD
:1030A000284600F027FE65E690F8223043F0020340
:1030B00080F8223000F01EFE5CE6002100F059FC92
:1030C00001463046FEF7CDFE54E63046FFF728FABB
:1030D00050E6000010B50C460846FEF791FE0020B1
:1030E00003F0D0F9144A0021204603F031FF0120FB
:1030F00003F0C8F90021204612F004FA2046FFF739
:10310000F8FD10B12046FEF7B5FFA3689BB1186823
:1031100020B113F061FBA36800221A60A368D8688D
:1031200020B113F059FBA3680022DA60A06813F005
:1031300053FB0023A36010BDFFFF0F00F0B585B067
:1031400004460D4600F0BCFD064615F001072AD1E5
:10315000E3692B43E3618FB102212046FFF7C3FDF2
:1031600060B12046FFF7C5FD074638B1FEF748FFBE
:103170003846FFF70DF808B101F0E5F9204600F0F8
:103180009FFDB04202D115F0C07F07D0204604F069
:103190008CF800F0AFFD204600F0ACFD15F0100FEC
:1031A00005D105B0F0BD204601F0CDF9D0E702AA67
:1031B0006946204602F0A6FB6946204601F09BF9CD
:1031C00002A9204601F097F9EBE70000836803B1FC
:1031D000704710B504460C4A1368013313601C2075
:1031E00013F0DCFAA06068B11C2113F07AFCA2682D
:1031F000537E43F00F035376A268137E43F003031C
:10320000137610BDFEE700BF5C07002028B1006800
:10321000884214BF0020012070470020704738B555
:10322000044605682B6813B10360FFF7F8FF2560BB
:103230006B6813B121462846984738BD00E0006806
:1032400020B18269054B1340002BF8D018B180697A
:10325000C0F30F1070470020704700BFF0FF0F0051
:10326000F8B505460C46FFF7E9FF064613F096FA57
:103270000746F0B1314613F034FC3D607C60D4B1B8
:10328000A368002B47D0A5682B68002B47D06B683C
:1032900001336B60A56869688900286813F0B8FA83
:1032A0002860A3681A685B6803F18043013B42F819
:1032B00023703846F8BD11F06DFF0446F0B1C068C8
:1032C00008B3616A01316162890013F0A1FAE0601C
:1032D000636A03F18043013B40F823700024BC8201
:1032E000FC82204611F05CFF80B201383883204612
:1032F00011F06EFF80B201387883DAE7384613F0B8
:103300006BFA2746D5E7042013F048FAE06007601F
:1033100001236362E2E72046FFF758FFB3E704208A
:1033200013F03CFA2860A3681B681F60A3680122A1
:103330005A60BEE710B50446006883680BB12146A9
:10334000984723681B681BB123602046FFF7F2FFF4
:1033500010BD036800E01B681BB11A7E12F0030F5A
:10336000F9D03BB1187E00F00300012814BF002003
:103370000120704700207047036800E01B681BB104
:103380001A7E12F00C0FF9D03BB1187E00F00C0041
:10339000042814BF0020012070470020704738B572
:1033A000044600F0A7FC002003F06CF8204605F06E
:1033B00039FA2046FFF733FF012003F063F84FF698
:1033C000FF724FF47021204603F08AFB204600F084
:1033D0000BFFFEF70FFE20B105462046FFF7CCFF9E
:1033E00088B9204603F061FF054658B122462221E4
:1033F000FEF7D2FC224623212846FEF7CDFC2046CC
:1034000001F0A1F838BD21462846FEF784FEE8E722
:1034100038B504460D46202203F02AFA0246294612
:10342000204603F03FFB38BD38B504460D46222246
:1034300003F01EFA02462946204603F033FB38BD4E
:1034400038B504460D46302203F012FA02462946EA
:10345000204603F027FB38BD38B504460D4636221A
:1034600003F006FA02462946204603F01BFB38BD4E
:1034700038B504460D46552203F0FAF902462946AE
:10348000204603F00FFB38BD38B504460D462A220E
:1034900003F0EEF902462946204603F003FB38BD4F
:1034A00038B504460D46442203F0E2F902462946A7
:1034B000204603F0F7FA38BD38B504460D464D22D4
:1034C00003F0D6F902462946204603F0EBFA38BD50
:1034D00038B504460D46522203F0CAF90246294681
:1034E000204603F0DFFA38BDF8B507460D4614460E
:1034F00003F04EFE06468DB1022809D80023E37082
:10350000A37684F8223084F82A3084F83630F8BD67
:1035100068222946384603F0ABF9A0700B222946F1
:10352000384603F0A5F92080E378002B44D13222FD
:103530002946384603F09CF900B2208420B194F863
:103540002230002B40F0848035222946384603F093
:103550008FF900B2E08420B194F82A30002B40F0BB
:103560009380A37E002B40F0A68094F83630002B89
:1035700040F0DA80FC2ECAD8E37806FB03F31B1276
:10358000E370A37E06FB03F31B12A37694F82230AC
:1035900006FB03F31B1284F8223094F82A3006FB52
:1035A00003F31B1284F82A3094F8363003FB06F636
:1035B000361284F83660AAE721222946384603F0FD
:1035C00057F9C0B2E0700228B1D929463846FFF752
:1035D0001FFFA08026222946384603F049F90146FC
:1035E00018B1437A13F0070F16D123222946384623
:1035F00003F03EF9E37B60F30203E373DBB213F005
:10360000070F0ED127222946384603F031F9E37B14
:1036100060F3C503E3738AE70A22A01D13F0A6F93D
:1036200085E729463846FFF7F3FEE080294638460D
:10363000FFF7FAFE608124222946384603F018F984
:10364000207225222946384603F012F92073D9E763
:1036500031222946384603F00BF9C0B284F8220023
:1036600002287FF671AF33222946384603F000F96D
:1036700094F8233060F3450384F823302946384614
:10368000FFF7DEFEE0835FE737222946384603F086
:10369000EFF8C0B284F82A0002287FF662AF382221
:1036A0002946384603F0E4F8208529463846FFF7D6
:1036B000D3FEA08455E728222946384603F0D8F8DF
:1036C000206100283FF451AF29222946384603F0F3
:1036D000CFF8C0B2A07602287FF647AF206905F088
:1036E0009DFB022814D029463846FFF7CDFE2083E3
:1036F0002B222946384603F0BBF8E0762C222946D7
:10370000384603F0B5F8003818BF012020772CE7C1
:1037100057222946384603F0ABF8606129463846FF
:10372000FFF7A6FE208320E740222946384603F013
:103730009FF800B2E08500283FF41CAF94F83630C3
:10374000022B7FF617AF45222946384603F090F842
:10375000C0B284F8360002287FF60CAF4122294619
:10376000384603F085F8208642222946384603F081
:103770007FF8608643222946384603F079F8A08610
:1037800029463846FFF78CFEA085F3E670B506465D
:103790000D461446562203F06BF8C3B2A376022BF3
:1037A00000D870BD2946304603F0F2FC022831D91A
:1037B000FC2804D8A37E03FB00F00012A076A37EB1
:1037C000022BEED929463046FFF752FEA08158223F
:1037D0002946304603F04CF8A0825922294630464B
:1037E00003F046F860825A222946304603F040F83A
:1037F000A37F60F30203A3777DB9572229463046A1
:1038000003F036F820605B222946304603F030F89A
:103810002077C6E70023A376C3E76822294630460F
:1038200003F026F8A37F60F3C503A377E5E770B53F
:1038300006460D4614464E2203F01AF8C3B2237210
:10384000022B00D870BD2946304603F0A1FC0228A7
:103850003BD9FC2804D8237A03FB00F00012207225
:10386000237A022BEED949222946304603F000F88C
:1038700000B260800028E5D029463046FFF71CFEE4
:1038800020804A222946304602F0F2FF00B2A08092
:10389000F0B94C222946304602F0EAFF003818BF42
:1038A0000120637A60F382036372DBB260F3C303C7
:1038B0006372002DC6D068222946304602F0D8FF38
:1038C000637A60F301036372BCE700232372B9E7F4
:1038D0004B222946304602F0CBFFE080D9E770B595
:1038E00006460D461446502202F0C2FF00B2608028
:1038F00000B970BD53222946304602F0B9FFC3B269
:103900002373022BF5D92946304603F041FC0228E7
:103910002CD9FC2804D8237B03FB00F00012207371
:10392000237B022BE5D929463046FFF7D1FD2080C5
:1039300054222946304602F09BFFA06051222946BE
:10394000304602F095FF003818BF0120637B60F31A
:1039500082036373002DCCD068222946304602F0E2
:1039600087FF637B60F301036373C2E70023237364
:10397000BFE7F8B505460E46402202F079FF04B2D3
:10398000E4B935223146284602F072FF07B2002F13
:1039900047D169223146284602F06AFF07B26A22FF
:1039A0003146284602F064FF00B2B842B8BF38463C
:1039B000002801DD204404B22046F8BD45223146EE
:1039C000284602F055FFC0B2022801D80024D8E7EB
:1039D00004EBD47464100134A4B243223146284667
:1039E00002F046FF80B20444A4B241223146284688
:1039F00002F03EFF07B242223146284602F038FF6D
:103A000003B2002BB8BF5B429BB2002FB8BF7F420E
:103A1000BFB2BB422CBFE418E41924B224EAE47418
:103A2000AFE737223146284602F022FFC0B2022813
:103A3000AFD938223146284602F01AFF00B2384486
:103A4000A042B8BF204604B2A3E738B504460D46ED
:103A5000482113F046F8256038BD836813B1B3F9E7
:103A6000160070470020704730B583B00446FFF75A
:103A7000F4FF05460023ADF806300DF106021321D0
:103A80002046FEF789F9BDF90630AB420AD1A3689A
:103A900063B1BDF80620DA82BDF90630AB4211D120
:103AA00003B030BD204600F04EFDF0E7BDF9063012
:103AB000002BF1D02046FFF789FBA368BDF8062054
:103AC000DA82E9E7204600F03EFDE9E7836813B1BA
:103AD000987E800970470020704700002DE9F04370
:103AE00083B004460F4690466E22002102F0C0FECD
:103AF00006460FFA80F96D220021204602F0B8FE3A
:103B000005B2B9F1000F02D1B5F5807F37D06F2231
:103B10000021204602F0ACFEADF804007022002126
:103B2000204602F0A5FE03B2ADF80630BDF9042030
:103B300002F4C041B1F5005F24D003F4C042B2F5F5
:103B4000005F3AD0A38ABDF804201344ADF80430D6
:103B5000E38ABDF806201344ADF80630B8F1000F33
:103B600007D076420FFA86F94FF4803393FBF5F3D2
:103B70001DB201AB2A464946384612F093F803B00D
:103B8000BDE8F08322F4C042B2F5FA6FD5DCB2F59D
:103B90007A7F01DDC2F57A72218BA08A091A89B277
:103BA000013109B201FB02F2114981FB0201D21776
:103BB000C2EB6112ADF80420BFE723F4C043B3F5B4
:103BC000FA6FBFDCB3F57A7F01DDC3F57A73628BE0
:103BD000E18A521A92B2013212B202FB03F3044A92
:103BE00082FB0312DB17C3EB6213ADF80630A9E7C3
:103BF0001F85EB5130B583B005460C46002301AA62
:103C0000072102F045FC012807D020B900222146F7
:103C1000284603F004FB03B030BD019BA342F5D15D
:103C2000F3E730B583B005460C46002301AA08210E
:103C300002F02EFC012807D020B900222146284698
:103C400003F0F4FA03B030BD019BA342F5D1F3E7D2
:103C500038B504461546FFF7CDFF29462046FFF745
:103C6000E0FF38BD30B583B005460C46002301AAFD
:103C7000012102F00DFC012807D020B900222146C5
:103C8000284603F0BEFA03B030BD019BA342F5D134
:103C9000F3E730B583B005460C46002301AA0421A2
:103CA00002F0F6FB012807D020B900222146284661
:103CB00003F0AEFA03B030BD019BA342F5D1F3E7A8
:103CC00038B504460A49FFF706F810B10025284622
:103CD00038BD0546204603F0E8FA0028F7D00A224E
:103CE000002102F0C5FD80B20028F0D00125EEE7EA
:103CF0000100060008B590F8222042F0010280F889
:103D0000222003F0D6FA90F8222042F0040280F834
:103D1000222003F0D7FA406808B113F0A4FB08BDD5
:103D200070B505460C460D4A1368013313600C4EFE
:103D3000D900306812F06CFD306068B10346074A64
:103D4000106800F10052013A43F83250044B1B68EE
:103D500003EBC2035C6070BDFEE700BF6407002098
:103D6000F40A002008B5002203F067FA08BDB0F994
:103D700014300B80B0F916304B80B0F918308B80BE
:103D8000B0F91A30CB807047038B828A981A80B2C0
:103D9000013000B27047438BC28A981A80B201305A
:103DA00000B27047F8B505461222002102F060FD0E
:103DB000074613220021284602F05AFD0646322209
:103DC0000021284602F054FD04462846FFF7DCFF98
:103DD00083B2DB1B9BB29B1B9BB26400A4B2181B7B
:103DE00000B2F8BDF8B505461022002102F040FDF2
:103DF000074611220021284602F03AFD06463222EB
:103E00000021284602F034FD04462846FFF7C3FF90
:103E100083B2DB1B9BB29B1B9BB26400A4B2181B3A
:103E200000B2F8BD70B506460C463222002102F001
:103E30001FFD054621463046FFF799FF694209B24A
:103E40000A46204611F065FC12220021304602F09D
:103E50000FFD238880B203442380132200213046C3
:103E600002F006FDA38880B21B1AA3801022002155
:103E7000304602F0FDFC638880B203446380112267
:103E80000021304602F0F4FCE38880B21B1AE38084
:103E900070BD00B583B00023ADF804304EF20103CD
:103EA000ADF8063001AA2C21FDF776FFBDF904001C
:103EB00003B05DF804FB00002DE9F04F83B0054628
:103EC0000022114601F018FB32220021284602F0A0
:103ED000CFFC044613220021284602F0C9FC80B220
:103EE000A4B220441FFA80FA03B2019312220021E7
:103EF000284602F0BDFC80B204441FFA84FB23B2C2
:103F000000932846FFF7C5FF87B25F44BFB257440E
:103F10003FB2284603F009FA8046162200212846BF
:103F200002F0A6FCC0B2012851D00024DFF8709145
:103F300071E009220021304602F09AFCC0B2082844
:103F40002ED840F24913C34013F0010F28D0B5F921
:103F50001830B6F914209B1A01334B45B8BF4B46B5
:103F60000FFA83F90134444535D2AB681B6853F826
:103F700024604C493046FEF7AEFE0028F2D13046B0
:103F8000FFF79EFE0028D4D0B5F91830B6F91420FA
:103F90009B1A01334B45B8BF4B460FFA83F9E1E753
:103FA00007220021304602F063FC00B20028D9D17C
:103FB000338BB28A9B1A9BB201339AB21BB201991E
:103FC0000B449945CEDC52440FFA82F9CAE700242B
:103FD000DFF8CC90C7E7324B99455CD0CB440FFA61
:103FE0008BFA52E009220021304602F041FCC0B2B7
:103FF00007282DD89323C34013F0010F28D0B6F91A
:104000001830B5F914209B1A01334B45B8BF4B4605
:104010000FFA83F90134444531D2AB681B6853F879
:10402000246020493046FEF756FE0028F2D1304683
:10403000FFF746FE0028D5D0B6F91830B5F91420A0
:104040009B1A01334B45B8BF4B460FFA83F9E1E7A2
:1040500008220021304602F00BFC00B20028D9D122
:10406000338BB28A9B1A9BB201339AB21BB200996E
:104070000B449945CEDC5A440FFA82F9CAE7084B43
:10408000994508D0CA440FFA8AFA054B9A4502D0DE
:104090005745B8BF5746384603B0BDE8F08F00BF5C
:1040A00001E0FFFF0100040000B583B04EF2010300
:1040B000ADF804300023ADF8063001AA2C21FDF73D
:1040C0006BFEBDF9060003B05DF804FB2DE9F04F6F
:1040D00083B006460022114601F022FA3222002166
:1040E000304602F0C5FB074610220021304602F0A0
:1040F000BFFB80B2BFB238441FFA80FB03B201930A
:1041000011220021304602F0B3FB80B20744BFB257
:104110003046FFF7C9FF1FFA80F8D8441FFA88F825
:10412000B8440FFA88F8304603F0FFF881460024BF
:10413000DFF8ACA013E009220021284602F098FB2A
:10414000C0B2032828D8B5F91A30B6F916209B1A40
:1041500001335345B8BF53460FFA83FA01344C4537
:1041600031D2B3681B6853F824501E492846FEF725
:10417000B2FD0028F2D12846FFF7A2FD0028DAD0D0
:10418000B5F91A30B6F916209B1A01335345B8BF5A
:1041900053460FFA83FAE1E708220021284602F08D
:1041A00067FB00B20028D9D16B8BEA8A9B1A9BB2BD
:1041B00001339AB21BB201990B449A45CEDC5A44A2
:1041C0000FFA82FACAE7064B9A4504D057443FB229
:1041D000B845B8BFB846404603B0BDE8F08F00BF51
:1041E00001E0FFFF0100040038B504460122002170
:1041F00002F03EFB05B204220021204602F038FB0B
:1042000042F2D1739D4202D000B2984204D12046BE
:10421000FFF770FD012038BD0020FCE72DE9F047D5
:1042200080468A4691461F4603F07FF806460024E2
:1042300000E00134B44223D2D8F808301D6855F8A4
:10424000245037B14FF480212846FEF73EFD002868
:10425000EFD1AB8A1FFA8AF21344AB82E98A1FFAC4
:1042600089F31944E982298B0A442A836A8B13440F
:104270006B8300234A4651462846FFF7CFFFD8E715
:10428000BDE8F08780B32DE9F0410F4615461C4686
:104290008046FFF71BFC06469CB11DB9022E0AD0D2
:1042A000BDE8F081404603F000F823462A4639462F
:1042B000FFF7E8FFF2E7224639464046FFF70EFCDB
:1042C000EEE702280AD0002DEAD0404602F0EDFFCA
:1042D00023462A463946FFF7D5FFE1E7224639460D
:1042E0004046FFF7FBFBEEE77047F0B585B00546AB
:1042F0000C4616461F46B1F90010ADF80010B4F98F
:1043000002E0ADF802E0ADF80410B4F90610ADF823
:104310000610B4F904C0ADF808C0ADF80AE0ADF875
:104320000CC0ADF80E106946FFF7ACFF3B463246B5
:1043300001A92846FFF7A6FF3B46324602A92846B8
:10434000FFF7A0FF3B46324603A92846FFF79AFF36
:10435000BDF90C30BDF908501946AB42A8BF29463B
:10436000BDF90420BDF9000016468242A8BF0646EA
:10437000B142A8BF31462180AB42B8BF2B46824232
:10438000B8BF02469342B8BF1346A380BDF90E30B2
:10439000BDF90A501946AB42A8BF2946BDF906200F
:1043A000BDF9020016468242A8BF0646B142A8BF28
:1043B00031466180AB42B8BF2B468242B8BF02464D
:1043C0009342B8BF1346E38005221146204611F000
:1043D000A0F905B0F0BD2DE9F04182B004460E46CB
:1043E0000121FEF772FC20B10027384602B0BDE87B
:1043F000F0810746204602F05CFF054602F062FFAE
:104400008046FDF7EBF985420ED04046FDF707FAEE
:10441000854209D04046FDF70DFA854204D040465A
:10442000FDF713FA8542E0D14FF400212046FEF754
:1044300052FC48BB2046FFF710FBB4F91410ADF84E
:104440000010B4F91620ADF80220B4F91830ADF818
:104450000430B4F91A50ADF8065089B280B2091A86
:10446000ADF8001092B2121AADF802209BB20344CC
:10447000ADF80430ADB22844ADF806006A463146C6
:10448000304611F064F950B1002301223146204634
:10449000FFF72BFF204602F008FF044605E0074621
:1044A000A3E7204602F001FF044614B30121204691
:1044B000FEF70BFC002898D14FF400212046FEF7B0
:1044C0000AFC0028EDD16D4604F1140393E80300C3
:1044D00085E803000023012229462046FFF705FF57
:1044E0002A463146304611F032F90028D9D1074624
:1044F0007BE7012779E730B583B005460C4602F02B
:10450000E1FEFDF754FB08B903B030BDB4F900304B
:10451000ADF80030B4F90230ADF80230B4F904302F
:10452000ADF80430B4F90630ADF8063069462846D7
:10453000FFF751FF0028E7D0284602F0C3FE694686
:1045400004F03EF8E0E710B582B00446FFF785FAC4
:10455000B4F91430ADF80030B4F91610ADF802100B
:10456000B4F91820ADF80420B4F91AE0ADF806E06B
:104570001FFA83FC83B2ACEB030CADF800C089B228
:10458000C91AADF8021092B21A44ADF804201FFA0D
:104590008EFE7344ADF8063069462046FFF7ABFF48
:1045A00002B010BD2DE9F04F87B004460D46164607
:1045B00047687FB312220021384602F059F982463B
:1045C0000FFA80FB10220021384602F051F9814693
:1045D0000FFA80F84FF480212046FEF776FB002882
:1045E00040D0BB8A03EB0A0080B2284405B2B7F87A
:1045F0001680C8441FFA88F8B0440FFA88F83222AF
:104600000021384602F034F980B205442DB200EBA7
:10461000080216B2A38AED1A1FFA85F82DB2ADF87A
:104620001450E38AF21A1FFA82F916B2ADF8166036
:104630000DB9002E5AD02046FFF785FF03A920466A
:10464000FFF795FB2FB301A93846FFF7EBFB0022DC
:1046500001A903A811F0AFF98246E0B9384601F08C
:1046600053FD18E0B7F914309B44384600F0AAFC1B
:10467000ABEB000BAB440FFA8BF5B7F9163098444F
:10468000384600F0A7FCA8EB0008B0440FFA88F801
:10469000B5E74FF0000AA38A4344A382E38A4B4460
:1046A000E382238B9844A4F81880638B9944A4F880
:1046B0001A900023324629462046FFF7AFFD27B166
:1046C000224622213846FDF767FB2046FFF73BFFD5
:1046D00067B1002201A904F1140011F06CF9BAF1DC
:1046E000000F00D110B1384601F00EFD07B0BDE853
:1046F000F08F00002DE9F04F85B00446FFF7E0FA97
:1047000010B105B0BDE8F08F204602F0CEFD07469F
:1047100007220021204602F0ABF8814605B20822AC
:104720000021204602F0A4F8804606B2002F53D0A4
:104730003846FFF737FB00903846FFF753FB0190F0
:1047400009F4C049B9F5005F4CD008F4C048B8F589
:10475000005F5CD06B220021204602F089F8814680
:104760000FFA80FB6C220021204602F081F880467F
:104770000FFA80FA2046FFF707FB02902046FFF76A
:104780000AFB039009F4C049B9F5005F54D008F45E
:10479000C048B8F5005F65D05D441FFA85F82DB2BA
:1047A00056441FFA86F936B209220021204602F04B
:1047B0005FF810F0FF006BD0012871D00238072895
:1047C00000F28280DFE810F0740086009A00A100F9
:1047D000B4008D00C100D400324629462046FFF7C0
:1047E000E1FE8EE725F4C043B3F5FA6FADDCB3F517
:1047F0007A7F01DDC3F57A73009A02FB03F36A4AFC
:1048000082FB0312DB17C3EB62131DB29DE726F494
:10481000C043B3F5FA6F9DDCB3F57A7F01DDC3F5D4
:104820007A73019A02FB03F35F4A82FB0312DB17E0
:10483000C3EB62131EB28DE72BF4C043B3F5FA6FDE
:10484000A5DCB3F57A7F01DDC3F57A73029A02FB2A
:1048500003F3554A82FB0312DB17C3EB62130FFA13
:1048600083FB94E72AF4C043B3F5FA6F94DCB3F505
:104870007A7F01DDC3F57A73039A02FB03F34A4A98
:1048800082FB0312DB17C3EB62130FFA83FA83E791
:1048900016220021384601F0EBFFC0B2012805D0F6
:1048A000324629462046FFF77DFE2AE7032085E7AA
:1048B000009B03EBD373029A02EBD2756D10C5EB2C
:1048C0006305ADB245442DB2324629462046FFF776
:1048D00069FE16E7009B029A9D1AADB245442DB2BF
:1048E000F2E7019B03EBD373039A02EBD2767610C7
:1048F000C6EB6306B6B24E4436B2E5E7019B039AB7
:104900009E1AB6B24E4436B2DEE7009B03EBD37379
:10491000029A02EBD2756D10C5EB6305ADB245444A
:104920002DB2019B039A9E1AB6B24E4436B2CBE723
:10493000009B029A9D1AADB245442DB2019B039A89
:104940009E1AB6B24E4436B2BEE7009B029A9D1A3A
:10495000ADB245442DB2019B03EBD373039A02EB36
:10496000D2767610C6EB6306B6B24E4436B2ABE7EB
:10497000009B03EBD372029B03EBD3735B10C3EB7F
:1049800062039BB298440FFA88F5019B03EBD37244
:10499000039B03EBD3735B10C3EB62039BB299449D
:1049A0000FFA89F690E700BF1F85EB5110B582B072
:1049B0000446FFF752F8B4F91430ADF80030B4F9FA
:1049C0001610ADF80210B4F91820ADF80420B4F9AF
:1049D0001AE0ADF806E01FFA83FC83B2ACEB030CDF
:1049E000ADF800C089B2C91AADF8021092B21A44EB
:1049F000ADF804201FFA8EFE7344ADF80630694608
:104A00002046FFF7E8FC02B010BD38B505460C465D
:104A1000FEF7DCFBAB689C8238BD000000B5844625
:104A2000084601F4C041B1F5005F0CD002F4C0416A
:104A3000B1F5005F1BD06245A8BF62469042B8BF87
:104A400010465DF804FB20F4C041B1F5FA6FEDDCCF
:104A5000B1F57A7F01DDC1F57A7103FB01F10E48F2
:104A600080FB01E0C917C1EB601108B2DEE722F458
:104A7000C041B1F5FA6FDEDCB1F57A7F01DDC1F539
:104A80007A7101FB03F3044A82FB0312DB17C3EBC9
:104A900062131AB2CFE700BF1F85EB5100B5844601
:104AA000084601F4C041B1F5005F0CD002F4C041EA
:104AB000B1F5005F1BD06245A8BF62469042B8BF07
:104AC00010465DF804FB20F4C041B1F5FA6FEDDC4F
:104AD000B1F57A7F01DDC1F57A7103FB01F10E4872
:104AE00080FB01E0C917C1EB601108B2DEE722F4D8
:104AF000C041B1F5FA6FDEDCB1F57A7F01DDC1F5B9
:104B00007A7101FB03F3044A82FB0312DB17C3EB48
:104B100062131AB2CFE700BF1F85EB5190F8233024
:104B200003F00C030C2B00F098812DE9F04F87B0B7
:104B3000044602F0BAFB0546002800F090812046AA
:104B400000F0B0FA009094F8233013F0080F78D0FA
:104B50002046FFF719F906464FF00009204600F0FD
:104B600041FA074694F8233013F0040F00F0E78071
:104B70002046FFF710F980464FF0000AB9F1000F08
:104B800002D1BAF1000F05D000233A460099204621
:104B900000F0DAFC2046FFF7F7F8B04205D12046D6
:104BA000FFF7F9F8404500F05C812046FFF7CBFCA9
:104BB00004A92046FFF7DBF802A92846FFF732F9DF
:104BC000002202A904A810F0F6FE0746002800F013
:104BD0003A81E08A404480B2013860831622002185
:104BE000204601F045FEC0B2012800F03081A38AC2
:104BF00033449BB2013B238304AA29212046FDF7BD
:104C0000CBF8224622212846FDF7C6F82046FFF7BA
:104C10009AFC94F8223043F0020384F822300022F8
:104C200002A904F1140010F0C6FE07B910B128461D
:104C300001F06AFA2046FEF717FF012007B0BDE831
:104C4000F08F01220021204601F012FE06B242F24E
:104C5000D1794E4514BF4FF000094FF0010900F41F
:104C6000C040B0F5005F36D04FF000082846FFF78F
:104C700099F8074642F2D1739E4237D0B8F1000F3F
:104C800015D095F8233013F0080F34D026F4C04225
:104C900012B2B2F57A7F01DDC2F57A7207FB02F239
:104CA000714B83FB0213D617C6EB631636B2022292
:104CB0000021204601F0DCFD0FFA80F803220021DC
:104CC000204601F0D5FD3B4602B241463046FFF793
:104CD000A5FE064642E726F4C043B3F5FA6F02DDAF
:104CE0004FF00008C2E74FF00108BFE72046FFF78A
:104CF000E3F80646DBE701220021284601F0B8FD73
:104D000000B242F2D1739842C0D132220021204633
:104D100001F0AEFD82460FFA80F8122200212046F3
:104D200001F0A6FD86B25644B6B2132200212046F9
:104D300001F09EFD03B29844464436B2B7E7042220
:104D40000021204601F094FD0FFA80F842F2D17A5A
:104D5000D04514BF4FF0000A4FF0010A00F4C040E4
:104D6000B0F5005F39D04FF0000B2846FFF73AF856
:104D7000019042F2D17398453AD0BBF1000F18D0A0
:104D800095F8233013F0040F37D028F4C0431BB23A
:104D9000B3F57A7F01DDC3F57A73019A02FB03F361
:104DA000314A82FB03124FEAE378C8EB62180FFA2C
:104DB00088F805220021204601F05AFD0FFA80FBF9
:104DC00006220021204601F053FD019B02B2594604
:104DD0004046FFF763FE8046D0E628F4C043B3F5B3
:104DE000FA6F02DD4FF0000BBFE74FF0010BBCE79D
:104DF0002046FFF76BF98046DBE7042200212846B6
:104E000001F036FD00B242F2D1739842BDD1322298
:104E10000021204601F02CFD80460FFA80FB102275
:104E20000021204601F024FD83B243441FFA83F899
:104E300011220021204601F01BFD03B29B44D844FF
:104E40000FFA88F8B5E7284601F05EF9C1E6238B32
:104E50009B1B9BB20133A382CEE60020704700204B
:104E6000ECE60020EAE600BF1F85EB5170B5044672
:104E700002F05BFA06460025B54207D2A3681B681C
:104E800053F82500FFF7F2FF0135F5E794F82230DB
:104E900013F0010F05D194F8223013F0020F27D13F
:104EA00070BD94F8223023F0010384F822302046AC
:104EB000FFF734FE2046FFF71DFC002EEBD00A2240
:104EC0000021204601F0D4FC80B20028E3D00E4B34
:104ED0001B688342DFD300F1005001380B4B1B6885
:104EE00003EBC00253F83030516820469847D2E7B0
:104EF00094F8223023F0020384F822300021204667
:104F000001F025F9CCE700BF64070020F40A002077
:104F10000E4B1B7803B1704710B50C4B01221A7071
:104F200002F0C7F9044608E094F8223023F00403A5
:104F300084F822302046FFF799FF94F8223013F0CE
:104F4000040FF1D1014B00221A7010BD610700203F
:104F500008B500220A210068FCF71EFF08BD38B51D
:104F600004460D46FEF732F9A268137E03F00303F0
:104F7000AB4206D0137E65F3010313762046FFF79C
:104F8000E2FA38BD83681BB1187E00F00300704759
:104F90000320704783681BB1587E00F00F007047F4
:104FA0000F20704783681BB1187EC0F381007047E3
:104FB0000020704783681BB1187EC0F30110704752
:104FC0000020704783681BB1188A404200B27047C6
:104FD0000020704783681BB1588A404200B2704776
:104FE0000020704783681BB1588A404200B2704766
:104FF000002070472DE9F843064602F096F98046F6
:105000000024264F05E0B5F91A309F42B8BF1F466D
:10501000013444450AD2B3681B6853F82450204930
:105020002846FDF758FE0028EDD0F1E710220021B8
:10503000304601F01DFC054611220021304601F0EA
:1050400017FC814632220021304601F011FC044653
:10505000124B9F4205D0738BA9EB030303443B44DF
:105060001FB23046FFF720F880466400A4B23046F5
:10507000FEF791FE80B22B1A9BB24B449BB21C44AC
:10508000A4B24444A4B23046FFF7A4FF80B2201A71
:1050900000B2B842B8BF3846BDE8F88301E0FFFF70
:1050A000010004002DE9F04F83B0064616220021CE
:1050B00001F0DEFBC0B2012808D0B368002B5DD040
:1050C000188A404200B203B0BDE8F08F13220021DD
:1050D000304601F0CDFB019012220021304601F054
:1050E000C7FB814632220021304601F0C1FB044655
:1050F000304602F01AF9834641F6FF7A002505E0B2
:10510000B7F914309A45A8BF9A4601355D450AD2D1
:10511000B3681B6853F8257019493846FDF7DBFD65
:105120000028EDD0F1E741F6FF739A4524D0B58A07
:105130004D44ADB22544ADB2A5EB0A052DB23046C3
:10514000FEF7A7FE80466400A4B23046FEF71CFEC0
:1051500080B2019B1B1A9BB24B449BB21C44A4B26D
:105160004444A4B23046FFF72DFF80B2204400B281
:10517000A842B8BF2846A6E7024DE0E70020A2E714
:105180000100040001E0FFFF2DE9F8430746162265
:10519000002101F06DFBC0B2012805D1BB68002BD6
:1051A00053D0B3F910004EE0384602F0BEF8804606
:1051B0000024274E05E0B5F918309E42B8BF1E46C0
:1051C000013444450AD2BB681B6853F82450214976
:1051D0002846FDF780FD0028EDD0F1E713220021DD
:1051E000384601F045FB054612220021384601F001
:1051F0003FFB814632220021384601F039FB04464C
:10520000134B9E4204D03B8BEB1A034433441EB233
:105210003846FEF73EFE80466400A4B23846FEF7EC
:10522000B3FD80B22B1A9BB24B449BB21C44A4B278
:105230004444A4B23846FFF7C5FE80B2201A00B23B
:10524000B042B8BF3046BDE8F8830020FBE700BF9E
:1052500001E0FFFF0100040070B5044615460E464C
:1052600001B9F2B12046FDF7B1FFA268138A3344B9
:105270001382A268538A2B44538201232A46314663
:105280002046FEF7CBFF00220B212046FCF784FDD1
:105290000546012801D0284670BD2046FFF753F986
:1052A000F9E70125F7E738B504460D46FFF792FE0A
:1052B00082B22A4412B200212046FFF7CDFF38BD4A
:1052C00038B504460D46FFF77DFE83B2591900221A
:1052D00009B22046FFF7C0FF38BD0000F0B593B01B
:1052E000044615460E4601B982B1012B10D03F4944
:1052F000204610F007F93E49204610F003F900223D
:1053000009212046FCF748FD012862D013B0F0BD0A
:10531000204601F0D7FF074601A810F0D9F8019404
:10532000344B049396B9002DF0D038460FF050FF5F
:105330002A46002140F35D0010F076F9C7282FD9E6
:10534000B0F5C87F2DD94FF4C8702AE038460FF069
:1053500027FF3246002140F35D0010F065F9C728B1
:1053600005D9B0F5C87F03D94FF4C87000E0C82054
:105370000C902046FFF726FE4342301A09930A9309
:105380000B901B4B02931C4B089301AA092120464A
:10539000FCF702FD0128B9D101A810F0E5F8C2E739
:1053A000C8200C902046FFF715FE4342281A0993A7
:1053B0000A930B900D4B02930F4B089301AA0921FE
:1053C0002046FCF7E9FC0128A0D101A810F0CCF898
:1053D0009CE72A4631462046FFF73EFF012895D13B
:1053E00000220A212046FCF7D7FC8FE7A7520008CD
:1053F000C1520008514F0008475601082DE9F047F7
:10540000054614461E46884601B97AB32846FFF77A
:105410007FFD2846FFF7D6FD1FFA80F91FFA88F8AE
:10542000A8EB09080FFA88F816220021284601F097
:105430001FFAC0B2012830D0B8F1000F18DD4FF0CC
:1054400000082846FFF7C6FD87B2A4B2E41B24B2C9
:10545000002C3BDD002409EB080109B23A1912B215
:1054600001B91AB133462846FFF738FFBDE8F08787
:10547000E7DA2846FFF716FE87B22846FFF784FED4
:1054800080B23B181BB2002B05DB5A429045D8DA9C
:105490000FFA82F8D5E70023F7E7B8F1000F12DB27
:1054A000CFDD2846FFF7FEFD87B22846FFF76CFEEA
:1054B00080B23B181BB2002B03DB4345C1DA984690
:1054C000BFE70023F9E74FF00008BAE7C3DA284640
:1054D000FFF788FD1FFA80FA2846FFF78BFD80B2A0
:1054E0000AEB00031BB2002B04DB5A429442B2DAEF
:1054F00014B2B0E70023F8E770B504460E4615462F
:1055000006490FF0FFFF2046FFF75CFD811B2B468D
:10551000002209B22046FFF771FF70BDC15200089A
:1055200070B504460E46154606490FF0EBFF2046BF
:10553000FFF750FD821B2B4612B200212046FFF7D9
:105540005DFF70BDA752000870B5054616461C46A3
:105550001A46FFF7D1FF224631462846FFF7E0FF03
:1055600070BD00002DE9F04F89B082460D460491D0
:1055700091460293084601F098FE04461021FDF77B
:10558000A4FB002800F0FF802046FFF703FD0190F8
:105590002046FFF70FFD0590002800F0F78005F189
:1055A000140B32220021204601F062F90646102237
:1055B0000021204601F05CF987B2B6B23744BFB291
:1055C00011220021204601F053F91FFA80F8B0445F
:1055D0001FFA88F8E58A3D44ADB2BBF80230ED1AF7
:1055E000ADB2B9F80230ED1A2DB2BBF80620618BCE
:1055F000A8EB01010A4413449AB207921BB2039329
:105600002046FEF7C8FB83B2DB1B9BB2A3EB08036B
:105610001AB20692002DC0F2C680039B002BC0F286
:10562000B7800025059B022B00F0CD80032B00F0F6
:10563000D880012B0BD1E38A3B449BB2BBF80220FC
:10564000ADB22A4492B29B1A9BB21D442DB22046A1
:10565000FFF7A8FC834610B1049B03F1140A122241
:105660000021204601F004F91FFA80F8B0441FFA27
:1056700088F813220021204601F0FAF880B206448F
:10568000B6B2A78A4744BFB2BAF80030FF1ABFB219
:10569000B9F80030FF1A3FB2BAF80420218B711A12
:1056A0000A4413449AB21BB2002FC0F2BB80002BF5
:1056B000C0F2B68000272046FEF766FB83B2A3EB5C
:1056C00008039BB29B1B1BB2BBF1020F00F0C18011
:1056D000BBF1030F00F0CA80BBF1010F0BD1A38A0D
:1056E00043449BB2BAF80020BFB23A4492B29B1A2C
:1056F0009BB21F443FB2714920460FF003FF06469C
:105700006F4920460FF0FEFE06B930B100220A2193
:105710002046FCF741FB012835D1019B13F0010F16
:1057200002D1002FC0F2C180019B13F0020F02D101
:10573000002F00DD0027019B13F0040F02D1002D84
:10574000C0F2B580019B13F0080F02D1002D00DDDF
:105750000025B9F80030029A002A00F0AA80BAB2F7
:105760001344A9F80030B9F80230029A002A00F078
:10577000A280AAB21344A9F80230029B2A463946F5
:105780002046FFF7ABFD09B0BDE8F08FD34608E730
:10579000002D08DD2046FFF725FC401B0028BFF642
:1057A00041AF00253EE7039B002B01DC002539E7D4
:1057B000079B5B421DB22046FFF71CFCE8427FF5C9
:1057C00031AF00252EE7638BA3EB08039BB2BBF838
:1057D0000620ADB22A4492B29B1A9BB21D442DB250
:1057E00035E7E38A3B449BB2069A02EBD27203EBA5
:1057F00062039BB2BBF80620BBF80210521A92B2A9
:10580000013210B2C2F3C032024401EB620292B222
:10581000ADB22A4492B29B1A9BB21D442DB216E738
:10582000002F03DC002B0ADC002744E72046FFF7AB
:1058300039FCC01B0028BFF63EAF00273BE75242B1
:1058400017B22046FFF7A0FCF8427FF534AF0027DF
:1058500031E7238B9B1B9BB2BAF80420BFB23A44BA
:1058600092B29B1A9BB21F443FB244E7A28A904473
:105870001FFA88F803EBD37308EB63039BB2BAF803
:105880000420BAF80010521A92B2013210B2C2F3D8
:10589000C032024401EB620292B2BFB23A4492B209
:1058A0009B1A9BB21F443FB225E700273CE7002527
:1058B00048E7002254E700225CE700BFA752000837
:1058C000C152000870B582B005460E46FFF720FBB6
:1058D0000023ADF80430ADF80630284601F0E5FCB1
:1058E000044629460AE0334601AA05F11400FFF7F1
:1058F00039FE204601F0D9FC21460446002CF2D1A5
:1059000002B070BD2DE9F04F95B004460F46164623
:105910004FF0FF3500952B460022114638460FF018
:10592000D7FE00952B460022114630460FF0D0FEE0
:1059300010212046FDF7C9F9039020B12046FFF75A
:1059400021FB814610B915B0BDE8F08F00200FF0A3
:105950007FFC0546B9F1020F0CD14DB12846FCF78A
:10596000E7FC844204D028460FF072FC0546F4E7B9
:10597000002DE8D02046FFF735FB80462046FFF794
:1059800039FB04902046FFF78DFB05902046FFF77A
:10599000FBFB06902046FFF7FDFA824610F00C0F45
:1059A00021D0B9F1010F00F02681B9F1030F05D024
:1059B000B9F1020F0ED04FF0000B16E0B8F1000F56
:1059C00002DDDDF80CB010E0049B002BF0DDDDF80B
:1059D0000CB00AE02846FCF79AFC0C2800F00E8177
:1059E0004FF0000B01E04FF0000B1AF0030F0AD04C
:1059F000B9F1010F0CD0B9F1030F00F00281B9F138
:105A0000020F00F00781BBF1000F9CD0002303932D
:105A100016224FF48031204600F02AFFC3B20B93C8
:105A200010224FF48031204600F022FF139003B281
:105A30000D9311224FF48031204600F019FF0A9097
:105A400003B20C9312224FF48031204600F010FF75
:105A5000129003B2119313224FF48031204600F0CC
:105A600007FF0E9003B2109301224FF480312046BD
:105A700000F0FEFE099005B22046FEF78CF9079073
:105A80002046FEF781F90890BBF1000F00F0C980B5
:105A90000F95039B03B9002521224FF48031204646
:105AA00000F0E6FEC0B2012840F2BE80BDF81C90B6
:105AB000C8441FFA88F8049B98441FFA88FA0FFA22
:105AC00088F3BBF1000F00F0F980002B00F0F680A6
:105AD000B4F916207280B4F91A20F2800B9A012AC8
